{
  "_format": "hh-sol-artifact-1",
  "contractName": "ProductRegistry",
  "sourceName": "contracts/ProductRegistry.sol",
  "abi": [
    {
      "inputs": [
        {
          "internalType": "string",
          "name": "fieldName",
          "type": "string"
        }
      ],
      "name": "EmptyField",
      "type": "error"
    },
    {
      "inputs": [
        {
          "internalType": "string",
          "name": "serialNumber",
          "type": "string"
        }
      ],
      "name": "ProductAlreadyExists",
      "type": "error"
    },
    {
      "inputs": [
        {
          "internalType": "string",
          "name": "serialNumber",
          "type": "string"
        }
      ],
      "name": "ProductNotFound",
      "type": "error"
    },
    {
      "anonymous": false,
      "inputs": [
        {
          "indexed": true,
          "internalType": "string",
          "name": "serialNumber",
          "type": "string"
        },
        {
          "indexed": false,
          "internalType": "string",
          "name": "name",
          "type": "string"
        },
        {
          "indexed": false,
          "internalType": "string",
          "name": "brand",
          "type": "string"
        },
        {
          "indexed": true,
          "internalType": "address",
          "name": "manufacturer",
          "type": "address"
        },
        {
          "indexed": false,
          "internalType": "uint256",
          "name": "registeredAt",
          "type": "uint256"
        }
      ],
      "name": "ProductRegistered",
      "type": "event"
    },
    {
      "inputs": [
        {
          "internalType": "string",
          "name": "_serialNumber",
          "type": "string"
        }
      ],
      "name": "getProduct",
      "outputs": [
        {
          "components": [
            {
              "internalType": "string",
              "name": "serialNumber",
              "type": "string"
            },
            {
              "internalType": "string",
              "name": "name",
              "type": "string"
            },
            {
              "internalType": "string",
              "name": "brand",
              "type": "string"
            },
            {
              "internalType": "string",
              "name": "description",
              "type": "string"
            },
            {
              "internalType": "uint256",
              "name": "price",
              "type": "uint256"
            },
            {
              "internalType": "address",
              "name": "manufacturer",
              "type": "address"
            },
            {
              "internalType": "uint256",
              "name": "registeredAt",
              "type": "uint256"
            },
            {
              "internalType": "bool",
              "name": "exists",
              "type": "bool"
            }
          ],
          "internalType": "struct ProductRegistry.Product",
          "name": "",
          "type": "tuple"
        }
      ],
      "stateMutability": "view",
      "type": "function"
    },
    {
      "inputs": [
        {
          "internalType": "string",
          "name": "_serialNumber",
          "type": "string"
        }
      ],
      "name": "productExists",
      "outputs": [
        {
          "internalType": "bool",
          "name": "",
          "type": "bool"
        }
      ],
      "stateMutability": "view",
      "type": "function"
    },
    {
      "inputs": [
        {
          "internalType": "string",
          "name": "_serialNumber",
          "type": "string"
        },
        {
          "internalType": "string",
          "name": "_name",
          "type": "string"
        },
        {
          "internalType": "string",
          "name": "_brand",
          "type": "string"
        },
        {
          "internalType": "string",
          "name": "_description",
          "type": "string"
        },
        {
          "internalType": "uint256",
          "name": "_price",
          "type": "uint256"
        }
      ],
      "name": "registerProduct",
      "outputs": [],
      "stateMutability": "nonpayable",
      "type": "function"
    },
    {
      "inputs": [],
      "name": "totalProducts",
      "outputs": [
        {
          "internalType": "uint256",
          "name": "",
          "type": "uint256"
        }
      ],
      "stateMutability": "view",
      "type": "function"
    }
  ],
  "bytecode": "0x608060405234801561001057600080fd5b50610d0d806100206000396000f3fe608060405234801561001057600080fd5b506004361061004c5760003560e01c806368111cce146100515780638addc0511461007a5780639b9d326d1461009d578063a18c1fab146100ae575b600080fd5b61006461005f36600461080c565b6100c3565b6040516100719190610894565b60405180910390f35b61008d61008836600461080c565b61041a565b6040519015158152602001610071565b600154604051908152602001610071565b6100c16100bc36600461095a565b61044b565b005b610116604051806101000160405280606081526020016060815260200160608152602001606081526020016000815260200160006001600160a01b03168152602001600081526020016000151581525090565b60008383604051610128929190610a26565b9081526040519081900360200190206007015460ff16610168578282604051630259e0d160e01b815260040161015f929190610a5f565b60405180910390fd5b6000838360405161017a929190610a26565b9081526020016040518091039020604051806101000160405290816000820180546101a490610a7b565b80601f01602080910402602001604051908101604052809291908181526020018280546101d090610a7b565b801561021d5780601f106101f25761010080835404028352916020019161021d565b820191906000526020600020905b81548152906001019060200180831161020057829003601f168201915b5050505050815260200160018201805461023690610a7b565b80601f016020809104026020016040519081016040528092919081815260200182805461026290610a7b565b80156102af5780601f10610284576101008083540402835291602001916102af565b820191906000526020600020905b81548152906001019060200180831161029257829003601f168201915b505050505081526020016002820180546102c890610a7b565b80601f01602080910402602001604051908101604052809291908181526020018280546102f490610a7b565b80156103415780601f1061031657610100808354040283529160200191610341565b820191906000526020600020905b81548152906001019060200180831161032457829003601f168201915b5050505050815260200160038201805461035a90610a7b565b80601f016020809104026020016040519081016040528092919081815260200182805461038690610a7b565b80156103d35780601f106103a8576101008083540402835291602001916103d3565b820191906000526020600020905b8154815290600101906020018083116103b657829003601f168201915b50505091835250506004820154602082015260058201546001600160a01b031660408201526006820154606082015260079091015460ff1615156080909101529392505050565b600080838360405161042d929190610a26565b9081526040519081900360200190206007015460ff16905092915050565b600088900361048c5760405163a69290e760e01b815260206004820152600c60248201526b39b2b934b0b6273ab6b132b960a11b604482015260640161015f565b60008690036104c75760405163a69290e760e01b815260040161015f906020808252600490820152636e616d6560e01b604082015260600190565b60008490036105015760405163a69290e760e01b8152602060048201526005602482015264189c985b9960da1b604482015260640161015f565b60008989604051610513929190610a26565b9081526040519081900360200190206007015460ff161561054b578888604051633b201a4b60e01b815260040161015f929190610a5f565b6040518061010001604052808a8a8080601f016020809104026020016040519081016040528093929190818152602001838380828437600092019190915250505090825250604080516020601f8b0181900481028201810190925289815291810191908a908a9081908401838280828437600092019190915250505090825250604080516020601f890181900481028201810190925287815291810191908890889081908401838280828437600092019190915250505090825250604080516020601f8701819004810282018101909252858152918101919086908690819084018382808284376000920182905250938552505050602082018490523360408084019190915242606084015260016080909301929092529051610671908c908c90610a26565b9081526040519081900360200190208151819061068e9082610b1c565b50602082015160018201906106a39082610b1c565b50604082015160028201906106b89082610b1c565b50606082015160038201906106cd9082610b1c565b506080820151600482015560a08201516005820180546001600160a01b0319166001600160a01b0390921691909117905560c0820151600682015560e0909101516007909101805460ff19169115159190911790556001805480820182556000919091527fb10e2d527612073b26eecdfd717e6a320cf44b4afac2b0732d9fcbe2b7fa0cf60161075e898b83610bdc565b506040513390610771908b908b90610a26565b60405180910390207f94f13dbe024332dcc9eea3655dffd40eaeb320b6c8479d9bc98d2c34f1e5e1c589898989426040516107b0959493929190610c9d565b60405180910390a3505050505050505050565b60008083601f8401126107d557600080fd5b50813567ffffffffffffffff8111156107ed57600080fd5b60208301915083602082850101111561080557600080fd5b9250929050565b6000806020838503121561081f57600080fd5b823567ffffffffffffffff81111561083657600080fd5b610842858286016107c3565b90969095509350505050565b6000815180845260005b8181101561087457602081850181015186830182015201610858565b506000602082860101526020601f19601f83011685010191505092915050565b60208152600082516101008060208501526108b361012085018361084e565b91506020850151601f19808685030160408701526108d1848361084e565b935060408701519150808685030160608701526108ee848361084e565b935060608701519150808685030160808701525061090c838261084e565b925050608085015160a085015260a085015161093360c08601826001600160a01b03169052565b5060c085015160e085015260e08501516109508286018215159052565b5090949350505050565b600080600080600080600080600060a08a8c03121561097857600080fd5b893567ffffffffffffffff8082111561099057600080fd5b61099c8d838e016107c3565b909b50995060208c01359150808211156109b557600080fd5b6109c18d838e016107c3565b909950975060408c01359150808211156109da57600080fd5b6109e68d838e016107c3565b909750955060608c01359150808211156109ff57600080fd5b50610a0c8c828d016107c3565b9a9d999c50979a9699959894979660800135949350505050565b8183823760009101908152919050565b81835281816020850137506000828201602090810191909152601f909101601f19169091010190565b602081526000610a73602083018486610a36565b949350505050565b600181811c90821680610a8f57607f821691505b602082108103610aaf57634e487b7160e01b600052602260045260246000fd5b50919050565b634e487b7160e01b600052604160045260246000fd5b601f821115610b17576000816000526020600020601f850160051c81016020861015610af45750805b601f850160051c820191505b81811015610b1357828155600101610b00565b5050505b505050565b815167ffffffffffffffff811115610b3657610b36610ab5565b610b4a81610b448454610a7b565b84610acb565b602080601f831160018114610b7f5760008415610b675750858301515b600019600386901b1c1916600185901b178555610b13565b600085815260208120601f198616915b82811015610bae57888601518255948401946001909101908401610b8f565b5085821015610bcc5787850151600019600388901b60f8161c191681555b5050505050600190811b01905550565b67ffffffffffffffff831115610bf457610bf4610ab5565b610c0883610c028354610a7b565b83610acb565b6000601f841160018114610c3c5760008515610c245750838201355b600019600387901b1c1916600186901b178355610c96565b600083815260209020601f19861690835b82811015610c6d5786850135825560209485019460019092019101610c4d565b5086821015610c8a5760001960f88860031b161c19848701351681555b505060018560011b0183555b5050505050565b606081526000610cb1606083018789610a36565b8281036020840152610cc4818688610a36565b915050826040830152969550505050505056fea26469706673582212208b40ac4203ae117c5a37207de283bd4cc4000d7d27ae60426976062cf6f8bbd864736f6c63430008180033",
  "linkReferences": {},
  "deployedLinkReferences": {}
}