{
  "_format": "hh-sol-artifact-1",
  "contractName": "SupplyChain",
  "sourceName": "contracts/SupplyChain.sol",
  "abi": [
    {
      "inputs": [
        {
          "internalType": "address",
          "name": "_productRegistry",
          "type": "address"
        },
        {
          "internalType": "address",
          "name": "_sellerRegistry",
          "type": "address"
        }
      ],
      "stateMutability": "nonpayable",
      "type": "constructor"
    },
    {
      "inputs": [
        {
          "internalType": "string",
          "name": "fieldName",
          "type": "string"
        }
      ],
      "name": "EmptyField",
      "type": "error"
    },
    {
      "inputs": [
        {
          "internalType": "string",
          "name": "serialNumber",
          "type": "string"
        },
        {
          "internalType": "enum SupplyChain.ProductStatus",
          "name": "current",
          "type": "uint8"
        },
        {
          "internalType": "enum SupplyChain.ProductStatus",
          "name": "attempted",
          "type": "uint8"
        }
      ],
      "name": "InvalidStatusTransition",
      "type": "error"
    },
    {
      "inputs": [
        {
          "internalType": "string",
          "name": "serialNumber",
          "type": "string"
        }
      ],
      "name": "ProductAlreadySoldToConsumer",
      "type": "error"
    },
    {
      "inputs": [
        {
          "internalType": "string",
          "name": "serialNumber",
          "type": "string"
        }
      ],
      "name": "ProductNotRegistered",
      "type": "error"
    },
    {
      "inputs": [
        {
          "internalType": "string",
          "name": "sellerCode",
          "type": "string"
        }
      ],
      "name": "SellerNotRegistered",
      "type": "error"
    },
    {
      "anonymous": false,
      "inputs": [
        {
          "indexed": true,
          "internalType": "string",
          "name": "serialNumber",
          "type": "string"
        },
        {
          "indexed": true,
          "internalType": "string",
          "name": "consumerCode",
          "type": "string"
        },
        {
          "indexed": false,
          "internalType": "address",
          "name": "actor",
          "type": "address"
        },
        {
          "indexed": false,
          "internalType": "uint256",
          "name": "timestamp",
          "type": "uint256"
        }
      ],
      "name": "SoldToConsumer",
      "type": "event"
    },
    {
      "anonymous": false,
      "inputs": [
        {
          "indexed": true,
          "internalType": "string",
          "name": "serialNumber",
          "type": "string"
        },
        {
          "indexed": true,
          "internalType": "string",
          "name": "sellerCode",
          "type": "string"
        },
        {
          "indexed": false,
          "internalType": "address",
          "name": "actor",
          "type": "address"
        },
        {
          "indexed": false,
          "internalType": "uint256",
          "name": "timestamp",
          "type": "uint256"
        }
      ],
      "name": "SoldToSeller",
      "type": "event"
    },
    {
      "anonymous": false,
      "inputs": [
        {
          "indexed": true,
          "internalType": "string",
          "name": "serialNumber",
          "type": "string"
        },
        {
          "indexed": true,
          "internalType": "string",
          "name": "sellerCode",
          "type": "string"
        },
        {
          "indexed": false,
          "internalType": "enum SupplyChain.ProductStatus",
          "name": "newStatus",
          "type": "uint8"
        },
        {
          "indexed": false,
          "internalType": "string",
          "name": "location",
          "type": "string"
        },
        {
          "indexed": false,
          "internalType": "uint256",
          "name": "timestamp",
          "type": "uint256"
        }
      ],
      "name": "SupplyChainUpdated",
      "type": "event"
    },
    {
      "inputs": [
        {
          "internalType": "string",
          "name": "_serialNumber",
          "type": "string"
        }
      ],
      "name": "getProductHistory",
      "outputs": [
        {
          "components": [
            {
              "internalType": "enum SupplyChain.ProductStatus",
              "name": "status",
              "type": "uint8"
            },
            {
              "internalType": "string",
              "name": "location",
              "type": "string"
            },
            {
              "internalType": "string",
              "name": "notes",
              "type": "string"
            },
            {
              "internalType": "string",
              "name": "actorCode",
              "type": "string"
            },
            {
              "internalType": "address",
              "name": "actor",
              "type": "address"
            },
            {
              "internalType": "uint256",
              "name": "timestamp",
              "type": "uint256"
            }
          ],
          "internalType": "struct SupplyChain.HistoryEvent[]",
          "name": "",
          "type": "tuple[]"
        }
      ],
      "stateMutability": "view",
      "type": "function"
    },
    {
      "inputs": [
        {
          "internalType": "string",
          "name": "_serialNumber",
          "type": "string"
        }
      ],
      "name": "getProductState",
      "outputs": [
        {
          "components": [
            {
              "internalType": "enum SupplyChain.ProductStatus",
              "name": "currentStatus",
              "type": "uint8"
            },
            {
              "internalType": "string",
              "name": "currentSellerCode",
              "type": "string"
            },
            {
              "internalType": "string",
              "name": "consumerCode",
              "type": "string"
            },
            {
              "internalType": "bool",
              "name": "exists",
              "type": "bool"
            }
          ],
          "internalType": "struct SupplyChain.ProductState",
          "name": "",
          "type": "tuple"
        }
      ],
      "stateMutability": "view",
      "type": "function"
    },
    {
      "inputs": [],
      "name": "productRegistry",
      "outputs": [
        {
          "internalType": "contract ProductRegistry",
          "name": "",
          "type": "address"
        }
      ],
      "stateMutability": "view",
      "type": "function"
    },
    {
      "inputs": [
        {
          "internalType": "string",
          "name": "_serialNumber",
          "type": "string"
        },
        {
          "internalType": "string",
          "name": "_consumerCode",
          "type": "string"
        }
      ],
      "name": "sellToConsumer",
      "outputs": [],
      "stateMutability": "nonpayable",
      "type": "function"
    },
    {
      "inputs": [
        {
          "internalType": "string",
          "name": "_serialNumber",
          "type": "string"
        },
        {
          "internalType": "string",
          "name": "_sellerCode",
          "type": "string"
        }
      ],
      "name": "sellToSeller",
      "outputs": [],
      "stateMutability": "nonpayable",
      "type": "function"
    },
    {
      "inputs": [],
      "name": "sellerRegistry",
      "outputs": [
        {
          "internalType": "contract SellerRegistry",
          "name": "",
          "type": "address"
        }
      ],
      "stateMutability": "view",
      "type": "function"
    },
    {
      "inputs": [
        {
          "internalType": "string",
          "name": "_serialNumber",
          "type": "string"
        },
        {
          "internalType": "string",
          "name": "_sellerCode",
          "type": "string"
        },
        {
          "internalType": "enum SupplyChain.ProductStatus",
          "name": "_newStatus",
          "type": "uint8"
        },
        {
          "internalType": "string",
          "name": "_location",
          "type": "string"
        },
        {
          "internalType": "string",
          "name": "_notes",
          "type": "string"
        }
      ],
      "name": "updateSupplyChain",
      "outputs": [],
      "stateMutability": "nonpayable",
      "type": "function"
    },
    {
      "inputs": [
        {
          "internalType": "string",
          "name": "_serialNumber",
          "type": "string"
        },
        {
          "internalType": "string",
          "name": "_consumerCode",
          "type": "string"
        }
      ],
      "name": "verifyProduct",
      "outputs": [
        {
          "internalType": "bool",
          "name": "isAuthentic",
          "type": "bool"
        },
        {
          "internalType": "enum SupplyChain.ProductStatus",
          "name": "status",
          "type": "uint8"
        }
      ],
      "stateMutability": "view",
      "type": "function"
    }
  ],
  "bytecode": "0x60806040523480156200001157600080fd5b5060405162001cc138038062001cc1833981016040819052620000349162000083565b600080546001600160a01b039384166001600160a01b03199182161790915560018054929093169116179055620000bb565b80516001600160a01b03811681146200007e57600080fd5b919050565b600080604083850312156200009757600080fd5b620000a28362000066565b9150620000b26020840162000066565b90509250929050565b611bf680620000cb6000396000f3fe608060405234801561001057600080fd5b50600436106100885760003560e01c806377fa00311161005b57806377fa00311461010a578063c0effb7d1461012a578063d4f504531461013d578063fff218c31461015d57600080fd5b8063178b8bde1461008d57806351cb74ac146100a2578063541b2927146100cc57806370c69b09146100df575b600080fd5b6100a061009b366004611463565b610170565b005b6100b56100b0366004611542565b6105e9565b6040516100c39291906115e6565b60405180910390f35b6100a06100da366004611542565b610688565b6001546100f2906001600160a01b031681565b6040516001600160a01b0390911681526020016100c3565b61011d610118366004611603565b610a01565b6040516100c3919061168b565b6100a0610138366004611542565b610bbe565b61015061014b366004611603565b610f58565b6040516100c391906116ee565b6000546100f2906001600160a01b031681565b600054604051638addc05160e01b81526001600160a01b0390911690638addc051906101a2908c908c906004016117e9565b602060405180830381865afa1580156101bf573d6000803e3d6000fd5b505050506040513d601f19601f820116820180604052508101906101e39190611805565b61020d578888604051633196c0c760e21b81526004016102049291906117e9565b60405180910390fd5b600154604051630140fffd60e71b81526001600160a01b039091169063a07ffe809061023f908a908a906004016117e9565b602060405180830381865afa15801561025c573d6000803e3d6000fd5b505050506040513d601f19601f820116820180604052508101906102809190611805565b6102a1578686604051630800ec8b60e41b81526004016102049291906117e9565b60008390036102de5760405163a69290e760e01b81526020600482015260086024820152673637b1b0ba34b7b760c11b6044820152606401610204565b600060028a8a6040516102f2929190611827565b90815260405190819003602001902090506002866004811115610317576103176115ae565b1415801561033757506003866004811115610334576103346115ae565b14155b156103615780546040516334184ccb60e21b8152610204918c918c9160ff16908a90600401611837565b6004815460ff166004811115610379576103796115ae565b0361039b578989604051632514d4cd60e21b81526004016102049291906117e9565b80548690829060ff191660018360048111156103b9576103b96115ae565b021790555060038a8a6040516103d0929190611827565b90815260200160405180910390206040518060c001604052808860048111156103fb576103fb6115ae565b815260200187878080601f016020809104026020016040519081016040528093929190818152602001838380828437600092019190915250505090825250604080516020601f880181900481028201810190925286815291810191908790879081908401838280828437600092019190915250505090825250604080516020601f8d018190048102820181019092528b815291810191908c908c9081908401838280828437600092018290525093855250503360208085019190915242604090940193909352508354600181810186559482529190208251600690920201805492939092839160ff19909116908360048111156104fa576104fa6115ae565b0217905550602082015160018201906105139082611911565b50604082015160028201906105289082611911565b506060820151600382019061053d9082611911565b5060808201516004820180546001600160a01b0319166001600160a01b0390921691909117905560a0909101516005909101556040516105809089908990611827565b60405180910390208a8a604051610598929190611827565b60405180910390207f5350304c1e61ecf7d2cf136c42d6adfbfa55bf306d971ea3677643137a375556888888426040516105d594939291906119d1565b60405180910390a350505050505050505050565b600080600060028787604051610600929190611827565b908152604051908190036020019020805460ff16925090506004815460ff166004811115610630576106306115ae565b14801561066b57508484604051610648929190611827565b6040518091039020816002016040516106619190611a03565b6040518091039020145b15610679576001925061067e565b600092505b5094509492505050565b600054604051638addc05160e01b81526001600160a01b0390911690638addc051906106ba90879087906004016117e9565b602060405180830381865afa1580156106d7573d6000803e3d6000fd5b505050506040513d601f19601f820116820180604052508101906106fb9190611805565b61071c578383604051633196c0c760e21b81526004016102049291906117e9565b600081900361075d5760405163a69290e760e01b815260206004820152600c60248201526b636f6e73756d6572436f646560a01b6044820152606401610204565b600060028585604051610771929190611827565b90815260405190819003602001902090506004815460ff16600481111561079a5761079a6115ae565b036107bc578484604051632514d4cd60e21b81526004016102049291906117e9565b6000815460ff1660048111156107d4576107d46115ae565b036107fe5780546040516334184ccb60e21b8152610204918791879160ff16906004908101611837565b805460ff1916600417815560028101610818838583611a79565b506003858560405161082b929190611827565b9081526040805191829003602001822060c083019091529080600481526020016040518060400160405280600881526020016721b7b739bab6b2b960c11b81525081526020018585604051602001610884929190611b3a565b604051602081830303815290604052815260200185858080601f016020809104026020016040519081016040528093929190818152602001838380828437600092018290525093855250503360208085019190915242604090940193909352508354600181810186559482529190208251600690920201805492939092839160ff199091169083600481111561091c5761091c6115ae565b0217905550602082015160018201906109359082611911565b506040820151600282019061094a9082611911565b506060820151600382019061095f9082611911565b5060808201516004820180546001600160a01b0319166001600160a01b0390921691909117905560a0909101516005909101556040516109a29084908490611827565b604051809103902085856040516109ba929190611827565b60408051918290038220338352426020840152917ff4f5da963813965a6df13c58c9d580646e2396cfd5df1e8c6f75cb9d1f816e1d91015b60405180910390a35050505050565b610a2c6040805160808101909152806000815260606020820181905260408201819052600091015290565b60028383604051610a3e929190611827565b90815260408051918290036020018220608083019091528054829060ff166004811115610a6d57610a6d6115ae565b6004811115610a7e57610a7e6115ae565b8152602001600182018054610a9290611886565b80601f0160208091040260200160405190810160405280929190818152602001828054610abe90611886565b8015610b0b5780601f10610ae057610100808354040283529160200191610b0b565b820191906000526020600020905b815481529060010190602001808311610aee57829003601f168201915b50505050508152602001600282018054610b2490611886565b80601f0160208091040260200160405190810160405280929190818152602001828054610b5090611886565b8015610b9d5780601f10610b7257610100808354040283529160200191610b9d565b820191906000526020600020905b815481529060010190602001808311610b8057829003601f168201915b50505091835250506003919091015460ff1615156020909101529392505050565b600054604051638addc05160e01b81526001600160a01b0390911690638addc05190610bf090879087906004016117e9565b602060405180830381865afa158015610c0d573d6000803e3d6000fd5b505050506040513d601f19601f82011682018060405250810190610c319190611805565b610c52578383604051633196c0c760e21b81526004016102049291906117e9565b600154604051630140fffd60e71b81526001600160a01b039091169063a07ffe8090610c8490859085906004016117e9565b602060405180830381865afa158015610ca1573d6000803e3d6000fd5b505050506040513d601f19601f82011682018060405250810190610cc59190611805565b610ce6578181604051630800ec8b60e41b81526004016102049291906117e9565b610cf084846111de565b600060028585604051610d04929190611827565b90815260405190819003602001902090506000815460ff166004811115610d2d57610d2d6115ae565b14610d585780546040516334184ccb60e21b8152610204918791879160ff1690600190600401611837565b805460ff1916600190811782558101610d72838583611a79565b5060038585604051610d85929190611827565b9081526040805191829003602001822060c083019091529080600181526020016040518060400160405280601081526020016f53656c6c65722057617265686f75736560801b81525081526020018585604051602001610de6929190611b73565b604051602081830303815290604052815260200185858080601f016020809104026020016040519081016040528093929190818152602001838380828437600092018290525093855250503360208085019190915242604090940193909352508354600181810186559482529190208251600690920201805492939092839160ff1990911690836004811115610e7e57610e7e6115ae565b021790555060208201516001820190610e979082611911565b5060408201516002820190610eac9082611911565b5060608201516003820190610ec19082611911565b5060808201516004820180546001600160a01b0319166001600160a01b0390921691909117905560a090910151600590910155604051610f049084908490611827565b60405180910390208585604051610f1c929190611827565b60408051918290038220338352426020840152917f076ee82b7fc13ab30f28f7a2c2fd5478fac96b315c379586d80eac18f079d24491016109f2565b606060038383604051610f6c929190611827565b9081526020016040518091039020805480602002602001604051908101604052809291908181526020016000905b828210156111d2576000848152602090206040805160c08101909152600684029091018054829060ff166004811115610fd557610fd56115ae565b6004811115610fe657610fe66115ae565b8152602001600182018054610ffa90611886565b80601f016020809104026020016040519081016040528092919081815260200182805461102690611886565b80156110735780601f1061104857610100808354040283529160200191611073565b820191906000526020600020905b81548152906001019060200180831161105657829003601f168201915b5050505050815260200160028201805461108c90611886565b80601f01602080910402602001604051908101604052809291908181526020018280546110b890611886565b80156111055780601f106110da57610100808354040283529160200191611105565b820191906000526020600020905b8154815290600101906020018083116110e857829003601f168201915b5050505050815260200160038201805461111e90611886565b80601f016020809104026020016040519081016040528092919081815260200182805461114a90611886565b80156111975780601f1061116c57610100808354040283529160200191611197565b820191906000526020600020905b81548152906001019060200180831161117a57829003601f168201915b505050918352505060048201546001600160a01b03166020808301919091526005909201546040909101529082526001929092019101610f9a565b50505050905092915050565b600282826040516111f0929190611827565b9081526040519081900360200190206003015460ff16611416576040805160808101825260008082528251602081810185528282528084019190915283519081018452908152818301526001606082015290516002906112539085908590611827565b90815260405190819003602001902081518154829060ff19166001836004811115611280576112806115ae565b0217905550602082015160018201906112999082611911565b50604082015160028201906112ae9082611911565b50606091909101516003918201805460ff19169115159190911790556040516112da9084908490611827565b9081526040805191829003602001822060c083019091529080600081526020016040518060400160405280600c81526020016b26b0b73ab330b1ba3ab932b960a11b8152508152602001604051806060016040528060218152602001611ba0602191398152604080516020818101835260008083528185019290925233928401929092524260609093019290925283546001818101865594835291208251600690920201805492939092839160ff199091169083600481111561139f5761139f6115ae565b0217905550602082015160018201906113b89082611911565b50604082015160028201906113cd9082611911565b50606082015160038201906113e29082611911565b5060808201516004820180546001600160a01b0319166001600160a01b0390921691909117905560a0909101516005909101555b5050565b60008083601f84011261142c57600080fd5b50813567ffffffffffffffff81111561144457600080fd5b60208301915083602082850101111561145c57600080fd5b9250929050565b600080600080600080600080600060a08a8c03121561148157600080fd5b893567ffffffffffffffff8082111561149957600080fd5b6114a58d838e0161141a565b909b50995060208c01359150808211156114be57600080fd5b6114ca8d838e0161141a565b909950975060408c01359150600582106114e357600080fd5b90955060608b013590808211156114f957600080fd5b6115058d838e0161141a565b909650945060808c013591508082111561151e57600080fd5b5061152b8c828d0161141a565b915080935050809150509295985092959850929598565b6000806000806040858703121561155857600080fd5b843567ffffffffffffffff8082111561157057600080fd5b61157c8883890161141a565b9096509450602087013591508082111561159557600080fd5b506115a28782880161141a565b95989497509550505050565b634e487b7160e01b600052602160045260246000fd5b600581106115e257634e487b7160e01b600052602160045260246000fd5b9052565b8215158152604081016115fc60208301846115c4565b9392505050565b6000806020838503121561161657600080fd5b823567ffffffffffffffff81111561162d57600080fd5b6116398582860161141a565b90969095509350505050565b6000815180845260005b8181101561166b5760208185018101518683018201520161164f565b506000602082860101526020601f19601f83011685010191505092915050565b6020815261169d6020820183516115c4565b60006020830151608060408401526116b860a0840182611645565b90506040840151601f198483030160608501526116d58282611645565b9150506060840151151560808401528091505092915050565b600060208083018184528085518083526040925060408601915060408160051b87010184880160005b838110156117b257603f19898403018552815160c06117378583516115c4565b88820151818a87015261174c82870182611645565b91505087820151858203898701526117648282611645565b9150506060808301518683038288015261177e8382611645565b6080858101516001600160a01b03169089015260a09485015194909701939093525050509386019390860190600101611717565b509098975050505050505050565b81835281816020850137506000828201602090810191909152601f909101601f19169091010190565b6020815260006117fd6020830184866117c0565b949350505050565b60006020828403121561181757600080fd5b815180151581146115fc57600080fd5b8183823760009101908152919050565b60608152600061184b6060830186886117c0565b905061185a60208301856115c4565b61186760408301846115c4565b95945050505050565b634e487b7160e01b600052604160045260246000fd5b600181811c9082168061189a57607f821691505b6020821081036118ba57634e487b7160e01b600052602260045260246000fd5b50919050565b601f82111561190c576000816000526020600020601f850160051c810160208610156118e95750805b601f850160051c820191505b81811015611908578281556001016118f5565b5050505b505050565b815167ffffffffffffffff81111561192b5761192b611870565b61193f816119398454611886565b846118c0565b602080601f831160018114611974576000841561195c5750858301515b600019600386901b1c1916600185901b178555611908565b600085815260208120601f198616915b828110156119a357888601518255948401946001909101908401611984565b50858210156119c15787850151600019600388901b60f8161c191681555b5050505050600190811b01905550565b6119db81866115c4565b6060602082015260006119f26060830185876117c0565b905082604083015295945050505050565b6000808354611a1181611886565b60018281168015611a295760018114611a3e57611a6d565b60ff1984168752821515830287019450611a6d565b8760005260208060002060005b85811015611a645781548a820152908401908201611a4b565b50505082870194505b50929695505050505050565b67ffffffffffffffff831115611a9157611a91611870565b611aa583611a9f8354611886565b836118c0565b6000601f841160018114611ad95760008515611ac15750838201355b600019600387901b1c1916600186901b178355611b33565b600083815260209020601f19861690835b82811015611b0a5786850135825560209485019460019092019101611aea565b5086821015611b275760001960f88860031b161c19848701351681555b505060018560011b0183555b5050505050565b7f536f6c6420746f20636f6e73756d657220636f64653a2000000000000000000081528183601783013760009101601701908152919050565b6f029b7b632103a379039b2b63632b91d160851b8152818360108301376000910160100190815291905056fe50726f647563742072656769737465726564206f6e20626c6f636b636861696e2ea2646970667358221220bd0513f094b5bdad2e11609641083630894b0c6791f51100af47944bf673e38a64736f6c63430008180033",
  "linkReferences": {},
  "deployedLinkReferences": {}
}