{
  "_format": "hh-sol-artifact-1",
  "contractName": "SellerRegistry",
  "sourceName": "contracts/SellerRegistry.sol",
  "abi": [
    {
      "inputs": [
        {
          "internalType": "string",
          "name": "fieldName",
          "type": "string"
        }
      ],
      "name": "EmptyField",
      "type": "error"
    },
    {
      "inputs": [
        {
          "internalType": "string",
          "name": "sellerCode",
          "type": "string"
        }
      ],
      "name": "SellerAlreadyExists",
      "type": "error"
    },
    {
      "inputs": [
        {
          "internalType": "string",
          "name": "sellerCode",
          "type": "string"
        }
      ],
      "name": "SellerNotFound",
      "type": "error"
    },
    {
      "anonymous": false,
      "inputs": [
        {
          "indexed": true,
          "internalType": "string",
          "name": "sellerCode",
          "type": "string"
        },
        {
          "indexed": false,
          "internalType": "string",
          "name": "name",
          "type": "string"
        },
        {
          "indexed": false,
          "internalType": "string",
          "name": "brand",
          "type": "string"
        },
        {
          "indexed": true,
          "internalType": "address",
          "name": "registeredBy",
          "type": "address"
        },
        {
          "indexed": false,
          "internalType": "uint256",
          "name": "registeredAt",
          "type": "uint256"
        }
      ],
      "name": "SellerRegistered",
      "type": "event"
    },
    {
      "inputs": [
        {
          "internalType": "string",
          "name": "_sellerCode",
          "type": "string"
        }
      ],
      "name": "getSeller",
      "outputs": [
        {
          "components": [
            {
              "internalType": "string",
              "name": "sellerCode",
              "type": "string"
            },
            {
              "internalType": "string",
              "name": "name",
              "type": "string"
            },
            {
              "internalType": "string",
              "name": "brand",
              "type": "string"
            },
            {
              "internalType": "string",
              "name": "phone",
              "type": "string"
            },
            {
              "internalType": "string",
              "name": "sellerAddress",
              "type": "string"
            },
            {
              "internalType": "address",
              "name": "registeredBy",
              "type": "address"
            },
            {
              "internalType": "uint256",
              "name": "registeredAt",
              "type": "uint256"
            },
            {
              "internalType": "bool",
              "name": "exists",
              "type": "bool"
            }
          ],
          "internalType": "struct SellerRegistry.Seller",
          "name": "",
          "type": "tuple"
        }
      ],
      "stateMutability": "view",
      "type": "function"
    },
    {
      "inputs": [
        {
          "internalType": "string",
          "name": "_sellerCode",
          "type": "string"
        },
        {
          "internalType": "string",
          "name": "_name",
          "type": "string"
        },
        {
          "internalType": "string",
          "name": "_brand",
          "type": "string"
        },
        {
          "internalType": "string",
          "name": "_phone",
          "type": "string"
        },
        {
          "internalType": "string",
          "name": "_sellerAddress",
          "type": "string"
        }
      ],
      "name": "registerSeller",
      "outputs": [],
      "stateMutability": "nonpayable",
      "type": "function"
    },
    {
      "inputs": [
        {
          "internalType": "string",
          "name": "_sellerCode",
          "type": "string"
        }
      ],
      "name": "sellerExists",
      "outputs": [
        {
          "internalType": "bool",
          "name": "",
          "type": "bool"
        }
      ],
      "stateMutability": "view",
      "type": "function"
    },
    {
      "inputs": [],
      "name": "totalSellers",
      "outputs": [
        {
          "internalType": "uint256",
          "name": "",
          "type": "uint256"
        }
      ],
      "stateMutability": "view",
      "type": "function"
    }
  ],
  "bytecode": "0x608060405234801561001057600080fd5b50610dc9806100206000396000f3fe608060405234801561001057600080fd5b506004361061004c5760003560e01c80636d3f4b7a146100515780637e8555ed14610067578063a07ffe801461007c578063a39029401461009f575b600080fd5b6001546040519081526020015b60405180910390f35b61007a610075366004610890565b6100bf565b005b61008f61008a366004610981565b610440565b604051901515815260200161005e565b6100b26100ad366004610981565b610471565b60405161005e9190610a09565b60008990036101035760405163a69290e760e01b815260206004820152600a60248201526973656c6c6572436f646560b01b60448201526064015b60405180910390fd5b600087900361013e5760405163a69290e760e01b81526004016100fa906020808252600490820152636e616d6560e01b604082015260600190565b60008a8a604051610150929190610ae2565b9081526040519081900360200190206007015460ff161561018857898960405163cf7c37b760e01b81526004016100fa929190610b1b565b6040518061010001604052808b8b8080601f016020809104026020016040519081016040528093929190818152602001838380828437600092019190915250505090825250604080516020601f8c018190048102820181019092528a815291810191908b908b9081908401838280828437600092019190915250505090825250604080516020601f8a0181900481028201810190925288815291810191908990899081908401838280828437600092019190915250505090825250604080516020601f880181900481028201810190925286815291810191908790879081908401838280828437600092019190915250505090825250604080516020601f860181900481028201810190925284815291810191908590859081908401838280828437600092018290525093855250503360208401525042604080840191909152600160609093019290925290516102e2908d908d90610ae2565b908152604051908190036020019020815181906102ff9082610bd8565b50602082015160018201906103149082610bd8565b50604082015160028201906103299082610bd8565b506060820151600382019061033e9082610bd8565b50608082015160048201906103539082610bd8565b5060a08201516005820180546001600160a01b0319166001600160a01b0390921691909117905560c0820151600682015560e0909101516007909101805460ff19169115159190911790556001805480820182556000919091527fb10e2d527612073b26eecdfd717e6a320cf44b4afac2b0732d9fcbe2b7fa0cf6016103da8a8c83610c98565b5060405133906103ed908c908c90610ae2565b60405180910390207f4d6447f210662672940ee9c1efb6704b3433447e4d75c9a797fb7a8fc02e8a508a8a8a8a4260405161042c959493929190610d59565b60405180910390a350505050505050505050565b6000808383604051610453929190610ae2565b9081526040519081900360200190206007015460ff16905092915050565b6104c4604051806101000160405280606081526020016060815260200160608152602001606081526020016060815260200160006001600160a01b03168152602001600081526020016000151581525090565b600083836040516104d6929190610ae2565b9081526040519081900360200190206007015460ff1661050d578282604051630e8ed20160e01b81526004016100fa929190610b1b565b6000838360405161051f929190610ae2565b90815260200160405180910390206040518061010001604052908160008201805461054990610b4d565b80601f016020809104026020016040519081016040528092919081815260200182805461057590610b4d565b80156105c25780601f10610597576101008083540402835291602001916105c2565b820191906000526020600020905b8154815290600101906020018083116105a557829003601f168201915b505050505081526020016001820180546105db90610b4d565b80601f016020809104026020016040519081016040528092919081815260200182805461060790610b4d565b80156106545780601f1061062957610100808354040283529160200191610654565b820191906000526020600020905b81548152906001019060200180831161063757829003601f168201915b5050505050815260200160028201805461066d90610b4d565b80601f016020809104026020016040519081016040528092919081815260200182805461069990610b4d565b80156106e65780601f106106bb576101008083540402835291602001916106e6565b820191906000526020600020905b8154815290600101906020018083116106c957829003601f168201915b505050505081526020016003820180546106ff90610b4d565b80601f016020809104026020016040519081016040528092919081815260200182805461072b90610b4d565b80156107785780601f1061074d57610100808354040283529160200191610778565b820191906000526020600020905b81548152906001019060200180831161075b57829003601f168201915b5050505050815260200160048201805461079190610b4d565b80601f01602080910402602001604051908101604052809291908181526020018280546107bd90610b4d565b801561080a5780601f106107df5761010080835404028352916020019161080a565b820191906000526020600020905b8154815290600101906020018083116107ed57829003601f168201915b505050918352505060058201546001600160a01b031660208201526006820154604082015260079091015460ff1615156060909101529392505050565b60008083601f84011261085957600080fd5b50813567ffffffffffffffff81111561087157600080fd5b60208301915083602082850101111561088957600080fd5b9250929050565b60008060008060008060008060008060a08b8d0312156108af57600080fd5b8a3567ffffffffffffffff808211156108c757600080fd5b6108d38e838f01610847565b909c509a5060208d01359150808211156108ec57600080fd5b6108f88e838f01610847565b909a50985060408d013591508082111561091157600080fd5b61091d8e838f01610847565b909850965060608d013591508082111561093657600080fd5b6109428e838f01610847565b909650945060808d013591508082111561095b57600080fd5b506109688d828e01610847565b915080935050809150509295989b9194979a5092959850565b6000806020838503121561099457600080fd5b823567ffffffffffffffff8111156109ab57600080fd5b6109b785828601610847565b90969095509350505050565b6000815180845260005b818110156109e9576020818501810151868301820152016109cd565b506000602082860101526020601f19601f83011685010191505092915050565b6020815260008251610100806020850152610a286101208501836109c3565b91506020850151601f1980868503016040870152610a4684836109c3565b93506040870151915080868503016060870152610a6384836109c3565b93506060870151915080868503016080870152610a8084836109c3565b935060808701519150808685030160a087015250610a9e83826109c3565b92505060a0850151610abb60c08601826001600160a01b03169052565b5060c085015160e085015260e0850151610ad88286018215159052565b5090949350505050565b8183823760009101908152919050565b81835281816020850137506000828201602090810191909152601f909101601f19169091010190565b602081526000610b2f602083018486610af2565b949350505050565b634e487b7160e01b600052604160045260246000fd5b600181811c90821680610b6157607f821691505b602082108103610b8157634e487b7160e01b600052602260045260246000fd5b50919050565b601f821115610bd3576000816000526020600020601f850160051c81016020861015610bb05750805b601f850160051c820191505b81811015610bcf57828155600101610bbc565b5050505b505050565b815167ffffffffffffffff811115610bf257610bf2610b37565b610c0681610c008454610b4d565b84610b87565b602080601f831160018114610c3b5760008415610c235750858301515b600019600386901b1c1916600185901b178555610bcf565b600085815260208120601f198616915b82811015610c6a57888601518255948401946001909101908401610c4b565b5085821015610c885787850151600019600388901b60f8161c191681555b5050505050600190811b01905550565b67ffffffffffffffff831115610cb057610cb0610b37565b610cc483610cbe8354610b4d565b83610b87565b6000601f841160018114610cf85760008515610ce05750838201355b600019600387901b1c1916600186901b178355610d52565b600083815260209020601f19861690835b82811015610d295786850135825560209485019460019092019101610d09565b5086821015610d465760001960f88860031b161c19848701351681555b505060018560011b0183555b5050505050565b606081526000610d6d606083018789610af2565b8281036020840152610d80818688610af2565b915050826040830152969550505050505056fea2646970667358221220aa8d52f917733adacd8248f9a222dde15d30428e8d8d60812bda8cad4e6cfd3664736f6c63430008180033",
  "linkReferences": {},
  "deployedLinkReferences": {}
}